{
  "_format": "hh-sol-artifact-1",
  "contractName": "NFTMarketplace",
  "sourceName": "contracts/NFTMarketPlace.sol",
  "abi": [
    {
      "inputs": [],
      "stateMutability": "nonpayable",
      "type": "constructor"
    },
    {
      "anonymous": false,
      "inputs": [
        {
          "indexed": true,
          "internalType": "address",
          "name": "owner",
          "type": "address"
        },
        {
          "indexed": true,
          "internalType": "address",
          "name": "approved",
          "type": "address"
        },
        {
          "indexed": true,
          "internalType": "uint256",
          "name": "tokenId",
          "type": "uint256"
        }
      ],
      "name": "Approval",
      "type": "event"
    },
    {
      "anonymous": false,
      "inputs": [
        {
          "indexed": true,
          "internalType": "address",
          "name": "owner",
          "type": "address"
        },
        {
          "indexed": true,
          "internalType": "address",
          "name": "operator",
          "type": "address"
        },
        {
          "indexed": false,
          "internalType": "bool",
          "name": "approved",
          "type": "bool"
        }
      ],
      "name": "ApprovalForAll",
      "type": "event"
    },
    {
      "anonymous": false,
      "inputs": [
        {
          "indexed": true,
          "internalType": "uint256",
          "name": "tokenId",
          "type": "uint256"
        },
        {
          "indexed": false,
          "internalType": "address",
          "name": "seller",
          "type": "address"
        },
        {
          "indexed": false,
          "internalType": "address",
          "name": "owner",
          "type": "address"
        },
        {
          "indexed": false,
          "internalType": "uint256",
          "name": "price",
          "type": "uint256"
        },
        {
          "indexed": false,
          "internalType": "address",
          "name": "artist",
          "type": "address"
        },
        {
          "indexed": false,
          "internalType": "uint256",
          "name": "royalty",
          "type": "uint256"
        },
        {
          "indexed": false,
          "internalType": "bool",
          "name": "sold",
          "type": "bool"
        }
      ],
      "name": "MarketItemCreated",
      "type": "event"
    },
    {
      "anonymous": false,
      "inputs": [
        {
          "indexed": true,
          "internalType": "address",
          "name": "from",
          "type": "address"
        },
        {
          "indexed": true,
          "internalType": "address",
          "name": "to",
          "type": "address"
        },
        {
          "indexed": true,
          "internalType": "uint256",
          "name": "tokenId",
          "type": "uint256"
        }
      ],
      "name": "Transfer",
      "type": "event"
    },
    {
      "inputs": [
        {
          "internalType": "address",
          "name": "to",
          "type": "address"
        },
        {
          "internalType": "uint256",
          "name": "tokenId",
          "type": "uint256"
        }
      ],
      "name": "approve",
      "outputs": [],
      "stateMutability": "nonpayable",
      "type": "function"
    },
    {
      "inputs": [
        {
          "internalType": "address",
          "name": "owner",
          "type": "address"
        }
      ],
      "name": "balanceOf",
      "outputs": [
        {
          "internalType": "uint256",
          "name": "",
          "type": "uint256"
        }
      ],
      "stateMutability": "view",
      "type": "function"
    },
    {
      "inputs": [
        {
          "internalType": "uint256",
          "name": "tokenId",
          "type": "uint256"
        }
      ],
      "name": "createMarketSale",
      "outputs": [],
      "stateMutability": "payable",
      "type": "function"
    },
    {
      "inputs": [
        {
          "internalType": "string",
          "name": "tokenURI",
          "type": "string"
        },
        {
          "internalType": "uint256",
          "name": "price",
          "type": "uint256"
        },
        {
          "internalType": "uint256",
          "name": "royalty",
          "type": "uint256"
        }
      ],
      "name": "createToken",
      "outputs": [
        {
          "internalType": "uint256",
          "name": "",
          "type": "uint256"
        }
      ],
      "stateMutability": "payable",
      "type": "function"
    },
    {
      "inputs": [
        {
          "internalType": "address",
          "name": "artist",
          "type": "address"
        }
      ],
      "name": "fetchFansforArtist",
      "outputs": [
        {
          "components": [
            {
              "internalType": "address",
              "name": "fan",
              "type": "address"
            },
            {
              "internalType": "uint256",
              "name": "amount",
              "type": "uint256"
            },
            {
              "internalType": "uint256",
              "name": "fanType",
              "type": "uint256"
            }
          ],
          "internalType": "struct NFTMarketplace.Fan[]",
          "name": "",
          "type": "tuple[]"
        }
      ],
      "stateMutability": "view",
      "type": "function"
    },
    {
      "inputs": [
        {
          "internalType": "uint256",
          "name": "tokenId",
          "type": "uint256"
        }
      ],
      "name": "fetchFansforNft",
      "outputs": [
        {
          "components": [
            {
              "internalType": "address",
              "name": "fan",
              "type": "address"
            },
            {
              "internalType": "uint256",
              "name": "amount",
              "type": "uint256"
            },
            {
              "internalType": "uint256",
              "name": "fanType",
              "type": "uint256"
            }
          ],
          "internalType": "struct NFTMarketplace.Fan[]",
          "name": "",
          "type": "tuple[]"
        }
      ],
      "stateMutability": "view",
      "type": "function"
    },
    {
      "inputs": [],
      "name": "fetchItemsListed",
      "outputs": [
        {
          "components": [
            {
              "internalType": "uint256",
              "name": "tokenId",
              "type": "uint256"
            },
            {
              "internalType": "address payable",
              "name": "seller",
              "type": "address"
            },
            {
              "internalType": "address payable",
              "name": "owner",
              "type": "address"
            },
            {
              "internalType": "uint256",
              "name": "price",
              "type": "uint256"
            },
            {
              "internalType": "address payable",
              "name": "artist",
              "type": "address"
            },
            {
              "internalType": "uint256",
              "name": "royalty",
              "type": "uint256"
            },
            {
              "internalType": "bool",
              "name": "sold",
              "type": "bool"
            }
          ],
          "internalType": "struct NFTMarketplace.MarketItem[]",
          "name": "",
          "type": "tuple[]"
        }
      ],
      "stateMutability": "view",
      "type": "function"
    },
    {
      "inputs": [],
      "name": "fetchMarketItems",
      "outputs": [
        {
          "components": [
            {
              "internalType": "uint256",
              "name": "tokenId",
              "type": "uint256"
            },
            {
              "internalType": "address payable",
              "name": "seller",
              "type": "address"
            },
            {
              "internalType": "address payable",
              "name": "owner",
              "type": "address"
            },
            {
              "internalType": "uint256",
              "name": "price",
              "type": "uint256"
            },
            {
              "internalType": "address payable",
              "name": "artist",
              "type": "address"
            },
            {
              "internalType": "uint256",
              "name": "royalty",
              "type": "uint256"
            },
            {
              "internalType": "bool",
              "name": "sold",
              "type": "bool"
            }
          ],
          "internalType": "struct NFTMarketplace.MarketItem[]",
          "name": "",
          "type": "tuple[]"
        }
      ],
      "stateMutability": "view",
      "type": "function"
    },
    {
      "inputs": [],
      "name": "fetchMyNFTs",
      "outputs": [
        {
          "components": [
            {
              "internalType": "uint256",
              "name": "tokenId",
              "type": "uint256"
            },
            {
              "internalType": "address payable",
              "name": "seller",
              "type": "address"
            },
            {
              "internalType": "address payable",
              "name": "owner",
              "type": "address"
            },
            {
              "internalType": "uint256",
              "name": "price",
              "type": "uint256"
            },
            {
              "internalType": "address payable",
              "name": "artist",
              "type": "address"
            },
            {
              "internalType": "uint256",
              "name": "royalty",
              "type": "uint256"
            },
            {
              "internalType": "bool",
              "name": "sold",
              "type": "bool"
            }
          ],
          "internalType": "struct NFTMarketplace.MarketItem[]",
          "name": "",
          "type": "tuple[]"
        }
      ],
      "stateMutability": "view",
      "type": "function"
    },
    {
      "inputs": [
        {
          "internalType": "address",
          "name": "artist",
          "type": "address"
        }
      ],
      "name": "fetchNFTSforArtist",
      "outputs": [
        {
          "components": [
            {
              "internalType": "uint256",
              "name": "tokenId",
              "type": "uint256"
            },
            {
              "internalType": "address payable",
              "name": "seller",
              "type": "address"
            },
            {
              "internalType": "address payable",
              "name": "owner",
              "type": "address"
            },
            {
              "internalType": "uint256",
              "name": "price",
              "type": "uint256"
            },
            {
              "internalType": "address payable",
              "name": "artist",
              "type": "address"
            },
            {
              "internalType": "uint256",
              "name": "royalty",
              "type": "uint256"
            },
            {
              "internalType": "bool",
              "name": "sold",
              "type": "bool"
            }
          ],
          "internalType": "struct NFTMarketplace.MarketItem[]",
          "name": "",
          "type": "tuple[]"
        }
      ],
      "stateMutability": "view",
      "type": "function"
    },
    {
      "inputs": [
        {
          "internalType": "uint256",
          "name": "tokenId",
          "type": "uint256"
        }
      ],
      "name": "getApproved",
      "outputs": [
        {
          "internalType": "address",
          "name": "",
          "type": "address"
        }
      ],
      "stateMutability": "view",
      "type": "function"
    },
    {
      "inputs": [],
      "name": "getListingPrice",
      "outputs": [
        {
          "internalType": "uint256",
          "name": "",
          "type": "uint256"
        }
      ],
      "stateMutability": "view",
      "type": "function"
    },
    {
      "inputs": [
        {
          "internalType": "uint256",
          "name": "tokenId",
          "type": "uint256"
        }
      ],
      "name": "getNFT",
      "outputs": [
        {
          "components": [
            {
              "internalType": "uint256",
              "name": "tokenId",
              "type": "uint256"
            },
            {
              "internalType": "address payable",
              "name": "seller",
              "type": "address"
            },
            {
              "internalType": "address payable",
              "name": "owner",
              "type": "address"
            },
            {
              "internalType": "uint256",
              "name": "price",
              "type": "uint256"
            },
            {
              "internalType": "address payable",
              "name": "artist",
              "type": "address"
            },
            {
              "internalType": "uint256",
              "name": "royalty",
              "type": "uint256"
            },
            {
              "internalType": "bool",
              "name": "sold",
              "type": "bool"
            }
          ],
          "internalType": "struct NFTMarketplace.MarketItem",
          "name": "",
          "type": "tuple"
        }
      ],
      "stateMutability": "view",
      "type": "function"
    },
    {
      "inputs": [
        {
          "internalType": "address",
          "name": "owner",
          "type": "address"
        },
        {
          "internalType": "address",
          "name": "operator",
          "type": "address"
        }
      ],
      "name": "isApprovedForAll",
      "outputs": [
        {
          "internalType": "bool",
          "name": "",
          "type": "bool"
        }
      ],
      "stateMutability": "view",
      "type": "function"
    },
    {
      "inputs": [],
      "name": "name",
      "outputs": [
        {
          "internalType": "string",
          "name": "",
          "type": "string"
        }
      ],
      "stateMutability": "view",
      "type": "function"
    },
    {
      "inputs": [
        {
          "internalType": "uint256",
          "name": "tokenId",
          "type": "uint256"
        }
      ],
      "name": "ownerOf",
      "outputs": [
        {
          "internalType": "address",
          "name": "",
          "type": "address"
        }
      ],
      "stateMutability": "view",
      "type": "function"
    },
    {
      "inputs": [
        {
          "internalType": "uint256",
          "name": "tokenId",
          "type": "uint256"
        },
        {
          "internalType": "uint256",
          "name": "price",
          "type": "uint256"
        }
      ],
      "name": "resellToken",
      "outputs": [],
      "stateMutability": "payable",
      "type": "function"
    },
    {
      "inputs": [
        {
          "internalType": "address",
          "name": "from",
          "type": "address"
        },
        {
          "internalType": "address",
          "name": "to",
          "type": "address"
        },
        {
          "internalType": "uint256",
          "name": "tokenId",
          "type": "uint256"
        }
      ],
      "name": "safeTransferFrom",
      "outputs": [],
      "stateMutability": "nonpayable",
      "type": "function"
    },
    {
      "inputs": [
        {
          "internalType": "address",
          "name": "from",
          "type": "address"
        },
        {
          "internalType": "address",
          "name": "to",
          "type": "address"
        },
        {
          "internalType": "uint256",
          "name": "tokenId",
          "type": "uint256"
        },
        {
          "internalType": "bytes",
          "name": "data",
          "type": "bytes"
        }
      ],
      "name": "safeTransferFrom",
      "outputs": [],
      "stateMutability": "nonpayable",
      "type": "function"
    },
    {
      "inputs": [
        {
          "internalType": "address",
          "name": "operator",
          "type": "address"
        },
        {
          "internalType": "bool",
          "name": "approved",
          "type": "bool"
        }
      ],
      "name": "setApprovalForAll",
      "outputs": [],
      "stateMutability": "nonpayable",
      "type": "function"
    },
    {
      "inputs": [
        {
          "internalType": "bytes4",
          "name": "interfaceId",
          "type": "bytes4"
        }
      ],
      "name": "supportsInterface",
      "outputs": [
        {
          "internalType": "bool",
          "name": "",
          "type": "bool"
        }
      ],
      "stateMutability": "view",
      "type": "function"
    },
    {
      "inputs": [],
      "name": "symbol",
      "outputs": [
        {
          "internalType": "string",
          "name": "",
          "type": "string"
        }
      ],
      "stateMutability": "view",
      "type": "function"
    },
    {
      "inputs": [
        {
          "internalType": "uint256",
          "name": "tokenId",
          "type": "uint256"
        }
      ],
      "name": "tokenURI",
      "outputs": [
        {
          "internalType": "string",
          "name": "",
          "type": "string"
        }
      ],
      "stateMutability": "view",
      "type": "function"
    },
    {
      "inputs": [
        {
          "internalType": "address",
          "name": "from",
          "type": "address"
        },
        {
          "internalType": "address",
          "name": "to",
          "type": "address"
        },
        {
          "internalType": "uint256",
          "name": "tokenId",
          "type": "uint256"
        }
      ],
      "name": "transferFrom",
      "outputs": [],
      "stateMutability": "nonpayable",
      "type": "function"
    },
    {
      "inputs": [
        {
          "internalType": "uint256",
          "name": "_listingPrice",
          "type": "uint256"
        }
      ],
      "name": "updateListingPrice",
      "outputs": [],
      "stateMutability": "payable",
      "type": "function"
    }
  ],
  "bytecode": "0x608060405266038d7ea4c68000600a553480156200001c57600080fd5b506040518060400160405280600c81526020017f4d7573696320546f6b656e7300000000000000000000000000000000000000008152506040518060400160405280600481526020017f4d503354000000000000000000000000000000000000000000000000000000008152508160009080519060200190620000a192919062000104565b508060019080519060200190620000ba92919062000104565b50505033600b60006101000a81548173ffffffffffffffffffffffffffffffffffffffff021916908373ffffffffffffffffffffffffffffffffffffffff16021790555062000219565b8280546200011290620001e3565b90600052602060002090601f01602090048101928262000136576000855562000182565b82601f106200015157805160ff191683800117855562000182565b8280016001018555821562000182579182015b828111156200018157825182559160200191906001019062000164565b5b50905062000191919062000195565b5090565b5b80821115620001b057600081600090555060010162000196565b5090565b7f4e487b7100000000000000000000000000000000000000000000000000000000600052602260045260246000fd5b60006002820490506001821680620001fc57607f821691505b60208210811415620002135762000212620001b4565b5b50919050565b61523880620002296000396000f3fe6080604052600436106101665760003560e01c80636352211e116100d1578063b88d4fde1161008a578063c87b56dd11610064578063c87b56dd1461054d578063e1d4b5121461058a578063e219fc75146105c7578063e985e9c5146105e357610166565b8063b88d4fde146104d8578063be9af53614610501578063bec2a7c51461051d57610166565b80636352211e146103b157806365181a60146103ee57806370a082311461042b57806395d89b4114610468578063a22cb46514610493578063ae677aa3146104bc57610166565b8063202e374011610123578063202e37401461028f57806322b58f75146102ba57806323b872dd146102f757806342842e0e1461032057806345f8fa8014610349578063576f7ea71461037457610166565b806301ffc9a71461016b57806306fdde03146101a8578063081812fc146101d3578063095ea7b3146102105780630f08efe01461023957806312e8558514610264575b600080fd5b34801561017757600080fd5b50610192600480360381019061018d9190613aa2565b610620565b60405161019f9190613aea565b60405180910390f35b3480156101b457600080fd5b506101bd610702565b6040516101ca9190613b9e565b60405180910390f35b3480156101df57600080fd5b506101fa60048036038101906101f59190613bf6565b610794565b6040516102079190613c64565b60405180910390f35b34801561021c57600080fd5b5061023760048036038101906102329190613cab565b6107da565b005b34801561024557600080fd5b5061024e6108f2565b60405161025b9190613e67565b60405180910390f35b34801561027057600080fd5b50610279610b21565b6040516102869190613e98565b60405180910390f35b34801561029b57600080fd5b506102a4610b2b565b6040516102b19190613e67565b60405180910390f35b3480156102c657600080fd5b506102e160048036038101906102dc9190613bf6565b610e79565b6040516102ee9190613fb3565b60405180910390f35b34801561030357600080fd5b5061031e60048036038101906103199190613fd5565b610f55565b005b34801561032c57600080fd5b5061034760048036038101906103429190613fd5565b610fb5565b005b34801561035557600080fd5b5061035e610fd5565b60405161036b9190613e67565b60405180910390f35b34801561038057600080fd5b5061039b60048036038101906103969190613bf6565b611323565b6040516103a891906140b6565b60405180910390f35b3480156103bd57600080fd5b506103d860048036038101906103d39190613bf6565b61148b565b6040516103e59190613c64565b60405180910390f35b3480156103fa57600080fd5b50610415600480360381019061041091906140d1565b611512565b6040516104229190613e67565b60405180910390f35b34801561043757600080fd5b50610452600480360381019061044d91906140d1565b611862565b60405161045f9190613e98565b60405180910390f35b34801561047457600080fd5b5061047d61191a565b60405161048a9190613b9e565b60405180910390f35b34801561049f57600080fd5b506104ba60048036038101906104b5919061412a565b6119ac565b005b6104d660048036038101906104d19190613bf6565b6119c2565b005b3480156104e457600080fd5b506104ff60048036038101906104fa919061429f565b611a5c565b005b61051b60048036038101906105169190613bf6565b611abe565b005b610537600480360381019061053291906143c3565b6121c1565b6040516105449190613e98565b60405180910390f35b34801561055957600080fd5b50610574600480360381019061056f9190613bf6565b612205565b6040516105819190613b9e565b60405180910390f35b34801561059657600080fd5b506105b160048036038101906105ac91906140d1565b612318565b6040516105be9190613fb3565b60405180910390f35b6105e160048036038101906105dc9190614432565b612420565b005b3480156105ef57600080fd5b5061060a60048036038101906106059190614472565b612615565b6040516106179190613aea565b60405180910390f35b60007f80ac58cd000000000000000000000000000000000000000000000000000000007bffffffffffffffffffffffffffffffffffffffffffffffffffffffff1916827bffffffffffffffffffffffffffffffffffffffffffffffffffffffff191614806106eb57507f5b5e139f000000000000000000000000000000000000000000000000000000007bffffffffffffffffffffffffffffffffffffffffffffffffffffffff1916827bffffffffffffffffffffffffffffffffffffffffffffffffffffffff1916145b806106fb57506106fa826126a9565b5b9050919050565b606060008054610711906144e1565b80601f016020809104026020016040519081016040528092919081815260200182805461073d906144e1565b801561078a5780601f1061075f5761010080835404028352916020019161078a565b820191906000526020600020905b81548152906001019060200180831161076d57829003601f168201915b5050505050905090565b600061079f82612713565b6004600083815260200190815260200160002060009054906101000a900473ffffffffffffffffffffffffffffffffffffffff169050919050565b60006107e58261148b565b90508073ffffffffffffffffffffffffffffffffffffffff168373ffffffffffffffffffffffffffffffffffffffff161415610856576040517f08c379a000000000000000000000000000000000000000000000000000000000815260040161084d90614585565b60405180910390fd5b8073ffffffffffffffffffffffffffffffffffffffff1661087561275e565b73ffffffffffffffffffffffffffffffffffffffff1614806108a457506108a38161089e61275e565b612615565b5b6108e3576040517f08c379a00000000000000000000000000000000000000000000000000000000081526004016108da90614617565b60405180910390fd5b6108ed8383612766565b505050565b60606000610900600761281f565b90506000808267ffffffffffffffff81111561091f5761091e614174565b5b60405190808252806020026020018201604052801561095857816020015b610945613912565b81526020019060019003908161093d5790505b50905060005b83811015610b175760006001826109759190614666565b90506000600e60008381526020019081526020016000209050806040518060e0016040529081600082015481526020016001820160009054906101000a900473ffffffffffffffffffffffffffffffffffffffff1673ffffffffffffffffffffffffffffffffffffffff1673ffffffffffffffffffffffffffffffffffffffff1681526020016002820160009054906101000a900473ffffffffffffffffffffffffffffffffffffffff1673ffffffffffffffffffffffffffffffffffffffff1673ffffffffffffffffffffffffffffffffffffffff168152602001600382015481526020016004820160009054906101000a900473ffffffffffffffffffffffffffffffffffffffff1673ffffffffffffffffffffffffffffffffffffffff1673ffffffffffffffffffffffffffffffffffffffff168152602001600582015481526020016006820160009054906101000a900460ff161515151581525050848681518110610ae857610ae76146bc565b5b6020026020010181905250600185610b009190614666565b945050508080610b0f906146eb565b91505061095e565b5080935050505090565b6000600a54905090565b60606000610b39600761281f565b905060008060005b83811015610be2573373ffffffffffffffffffffffffffffffffffffffff16600e6000600184610b719190614666565b815260200190815260200160002060020160009054906101000a900473ffffffffffffffffffffffffffffffffffffffff1673ffffffffffffffffffffffffffffffffffffffff161415610bcf57600183610bcc9190614666565b92505b8080610bda906146eb565b915050610b41565b5060008267ffffffffffffffff811115610bff57610bfe614174565b5b604051908082528060200260200182016040528015610c3857816020015b610c25613912565b815260200190600190039081610c1d5790505b50905060005b84811015610e6e573373ffffffffffffffffffffffffffffffffffffffff16600e6000600184610c6e9190614666565b815260200190815260200160002060020160009054906101000a900473ffffffffffffffffffffffffffffffffffffffff1673ffffffffffffffffffffffffffffffffffffffff161415610e5b576000600182610ccb9190614666565b90506000600e60008381526020019081526020016000209050806040518060e0016040529081600082015481526020016001820160009054906101000a900473ffffffffffffffffffffffffffffffffffffffff1673ffffffffffffffffffffffffffffffffffffffff1673ffffffffffffffffffffffffffffffffffffffff1681526020016002820160009054906101000a900473ffffffffffffffffffffffffffffffffffffffff1673ffffffffffffffffffffffffffffffffffffffff1673ffffffffffffffffffffffffffffffffffffffff168152602001600382015481526020016004820160009054906101000a900473ffffffffffffffffffffffffffffffffffffffff1673ffffffffffffffffffffffffffffffffffffffff1673ffffffffffffffffffffffffffffffffffffffff168152602001600582015481526020016006820160009054906101000a900460ff161515151581525050848681518110610e3e57610e3d6146bc565b5b6020026020010181905250600185610e569190614666565b945050505b8080610e66906146eb565b915050610c3e565b508094505050505090565b6060600d6000838152602001908152602001600020805480602002602001604051908101604052809291908181526020016000905b82821015610f4a57838290600052602060002090600302016040518060600160405290816000820160009054906101000a900473ffffffffffffffffffffffffffffffffffffffff1673ffffffffffffffffffffffffffffffffffffffff1673ffffffffffffffffffffffffffffffffffffffff1681526020016001820154815260200160028201548152505081526020019060010190610eae565b505050509050919050565b610f66610f6061275e565b8261282d565b610fa5576040517f08c379a0000000000000000000000000000000000000000000000000000000008152600401610f9c906147a6565b60405180910390fd5b610fb08383836128c2565b505050565b610fd083838360405180602001604052806000815250611a5c565b505050565b60606000610fe3600761281f565b905060008060005b8381101561108c573373ffffffffffffffffffffffffffffffffffffffff16600e600060018461101b9190614666565b815260200190815260200160002060040160009054906101000a900473ffffffffffffffffffffffffffffffffffffffff1673ffffffffffffffffffffffffffffffffffffffff161415611079576001836110769190614666565b92505b8080611084906146eb565b915050610feb565b5060008267ffffffffffffffff8111156110a9576110a8614174565b5b6040519080825280602002602001820160405280156110e257816020015b6110cf613912565b8152602001906001900390816110c75790505b50905060005b84811015611318573373ffffffffffffffffffffffffffffffffffffffff16600e60006001846111189190614666565b815260200190815260200160002060040160009054906101000a900473ffffffffffffffffffffffffffffffffffffffff1673ffffffffffffffffffffffffffffffffffffffff1614156113055760006001826111759190614666565b90506000600e60008381526020019081526020016000209050806040518060e0016040529081600082015481526020016001820160009054906101000a900473ffffffffffffffffffffffffffffffffffffffff1673ffffffffffffffffffffffffffffffffffffffff1673ffffffffffffffffffffffffffffffffffffffff1681526020016002820160009054906101000a900473ffffffffffffffffffffffffffffffffffffffff1673ffffffffffffffffffffffffffffffffffffffff1673ffffffffffffffffffffffffffffffffffffffff168152602001600382015481526020016004820160009054906101000a900473ffffffffffffffffffffffffffffffffffffffff1673ffffffffffffffffffffffffffffffffffffffff1673ffffffffffffffffffffffffffffffffffffffff168152602001600582015481526020016006820160009054906101000a900460ff1615151515815250508486815181106112e8576112e76146bc565b5b60200260200101819052506001856113009190614666565b945050505b8080611310906146eb565b9150506110e8565b508094505050505090565b61132b613912565b600e60008381526020019081526020016000206040518060e0016040529081600082015481526020016001820160009054906101000a900473ffffffffffffffffffffffffffffffffffffffff1673ffffffffffffffffffffffffffffffffffffffff1673ffffffffffffffffffffffffffffffffffffffff1681526020016002820160009054906101000a900473ffffffffffffffffffffffffffffffffffffffff1673ffffffffffffffffffffffffffffffffffffffff1673ffffffffffffffffffffffffffffffffffffffff168152602001600382015481526020016004820160009054906101000a900473ffffffffffffffffffffffffffffffffffffffff1673ffffffffffffffffffffffffffffffffffffffff1673ffffffffffffffffffffffffffffffffffffffff168152602001600582015481526020016006820160009054906101000a900460ff1615151515815250509050919050565b60008061149783612bbc565b9050600073ffffffffffffffffffffffffffffffffffffffff168173ffffffffffffffffffffffffffffffffffffffff161415611509576040517f08c379a000000000000000000000000000000000000000000000000000000000815260040161150090614812565b60405180910390fd5b80915050919050565b60606000611520600761281f565b905060008060005b838110156115c9578573ffffffffffffffffffffffffffffffffffffffff16600e60006001846115589190614666565b815260200190815260200160002060040160009054906101000a900473ffffffffffffffffffffffffffffffffffffffff1673ffffffffffffffffffffffffffffffffffffffff1614156115b6576001836115b39190614666565b92505b80806115c1906146eb565b915050611528565b5060008267ffffffffffffffff8111156115e6576115e5614174565b5b60405190808252806020026020018201604052801561161f57816020015b61160c613912565b8152602001906001900390816116045790505b50905060005b84811015611855578673ffffffffffffffffffffffffffffffffffffffff16600e60006001846116559190614666565b815260200190815260200160002060040160009054906101000a900473ffffffffffffffffffffffffffffffffffffffff1673ffffffffffffffffffffffffffffffffffffffff1614156118425760006001826116b29190614666565b90506000600e60008381526020019081526020016000209050806040518060e0016040529081600082015481526020016001820160009054906101000a900473ffffffffffffffffffffffffffffffffffffffff1673ffffffffffffffffffffffffffffffffffffffff1673ffffffffffffffffffffffffffffffffffffffff1681526020016002820160009054906101000a900473ffffffffffffffffffffffffffffffffffffffff1673ffffffffffffffffffffffffffffffffffffffff1673ffffffffffffffffffffffffffffffffffffffff168152602001600382015481526020016004820160009054906101000a900473ffffffffffffffffffffffffffffffffffffffff1673ffffffffffffffffffffffffffffffffffffffff1673ffffffffffffffffffffffffffffffffffffffff168152602001600582015481526020016006820160009054906101000a900460ff161515151581525050848681518110611825576118246146bc565b5b602002602001018190525060018561183d9190614666565b945050505b808061184d906146eb565b915050611625565b5080945050505050919050565b60008073ffffffffffffffffffffffffffffffffffffffff168273ffffffffffffffffffffffffffffffffffffffff1614156118d3576040517f08c379a00000000000000000000000000000000000000000000000000000000081526004016118ca906148a4565b60405180910390fd5b600360008373ffffffffffffffffffffffffffffffffffffffff1673ffffffffffffffffffffffffffffffffffffffff168152602001908152602001600020549050919050565b606060018054611929906144e1565b80601f0160208091040260200160405190810160405280929190818152602001828054611955906144e1565b80156119a25780601f10611977576101008083540402835291602001916119a2565b820191906000526020600020905b81548152906001019060200180831161198557829003601f168201915b5050505050905090565b6119be6119b761275e565b8383612bf9565b5050565b3373ffffffffffffffffffffffffffffffffffffffff16600b60009054906101000a900473ffffffffffffffffffffffffffffffffffffffff1673ffffffffffffffffffffffffffffffffffffffff1614611a52576040517f08c379a0000000000000000000000000000000000000000000000000000000008152600401611a4990614936565b60405180910390fd5b80600a8190555050565b611a6d611a6761275e565b8361282d565b611aac576040517f08c379a0000000000000000000000000000000000000000000000000000000008152600401611aa3906147a6565b60405180910390fd5b611ab884848484612d66565b50505050565b6000600e60008381526020019081526020016000206003015490506000600e600084815260200190815260200160002060010160009054906101000a900473ffffffffffffffffffffffffffffffffffffffff169050813414611b56576040517f08c379a0000000000000000000000000000000000000000000000000000000008152600401611b4d906149c8565b60405180910390fd5b33600e600085815260200190815260200160002060020160006101000a81548173ffffffffffffffffffffffffffffffffffffffff021916908373ffffffffffffffffffffffffffffffffffffffff1602179055506001600e600085815260200190815260200160002060060160006101000a81548160ff0219169083151502179055506000600e600085815260200190815260200160002060010160006101000a81548173ffffffffffffffffffffffffffffffffffffffff021916908373ffffffffffffffffffffffffffffffffffffffff160217905550611c3a6008612dc2565b611c453033856128c2565b600b60009054906101000a900473ffffffffffffffffffffffffffffffffffffffff1673ffffffffffffffffffffffffffffffffffffffff166108fc600a549081150290604051600060405180830381858888f19350505050158015611caf573d6000803e3d6000fd5b506000600e600085815260200190815260200160002060040160009054906101000a900473ffffffffffffffffffffffffffffffffffffffff1690506000600e60008681526020019081526020016000206005015490508273ffffffffffffffffffffffffffffffffffffffff166108fc826064611d2d91906149e8565b606434611d3a9190614a4b565b611d449190614a7c565b9081150290604051600060405180830381858888f19350505050158015611d6f573d6000803e3d6000fd5b508173ffffffffffffffffffffffffffffffffffffffff166108fc82606434611d989190614a4b565b611da29190614a7c565b9081150290604051600060405180830381858888f19350505050158015611dcd573d6000803e3d6000fd5b508273ffffffffffffffffffffffffffffffffffffffff168273ffffffffffffffffffffffffffffffffffffffff161415611fc957600c60008373ffffffffffffffffffffffffffffffffffffffff1673ffffffffffffffffffffffffffffffffffffffff16815260200190815260200160002060405180606001604052803373ffffffffffffffffffffffffffffffffffffffff1681526020013481526020016001815250908060018154018082558091505060019003906000526020600020906003020160009091909190915060008201518160000160006101000a81548173ffffffffffffffffffffffffffffffffffffffff021916908373ffffffffffffffffffffffffffffffffffffffff16021790555060208201518160010155604082015181600201555050600d600086815260200190815260200160002060405180606001604052803373ffffffffffffffffffffffffffffffffffffffff1681526020013481526020016001815250908060018154018082558091505060019003906000526020600020906003020160009091909190915060008201518160000160006101000a81548173ffffffffffffffffffffffffffffffffffffffff021916908373ffffffffffffffffffffffffffffffffffffffff160217905550602082015181600101556040820151816002015550506121ba565b600c60008373ffffffffffffffffffffffffffffffffffffffff1673ffffffffffffffffffffffffffffffffffffffff16815260200190815260200160002060405180606001604052803373ffffffffffffffffffffffffffffffffffffffff1681526020018360643461203d9190614a4b565b6120479190614a7c565b81526020016000815250908060018154018082558091505060019003906000526020600020906003020160009091909190915060008201518160000160006101000a81548173ffffffffffffffffffffffffffffffffffffffff021916908373ffffffffffffffffffffffffffffffffffffffff16021790555060208201518160010155604082015181600201555050600d600086815260200190815260200160002060405180606001604052803373ffffffffffffffffffffffffffffffffffffffff1681526020018360643461211f9190614a4b565b6121299190614a7c565b81526020016000815250908060018154018082558091505060019003906000526020600020906003020160009091909190915060008201518160000160006101000a81548173ffffffffffffffffffffffffffffffffffffffff021916908373ffffffffffffffffffffffffffffffffffffffff160217905550602082015181600101556040820151816002015550505b5050505050565b60006121cd6007612dc2565b60006121d9600761281f565b90506121e53382612dd8565b6121ef8186612ff6565b6121fa81858561306a565b809150509392505050565b606061221082612713565b6000600660008481526020019081526020016000208054612230906144e1565b80601f016020809104026020016040519081016040528092919081815260200182805461225c906144e1565b80156122a95780601f1061227e576101008083540402835291602001916122a9565b820191906000526020600020905b81548152906001019060200180831161228c57829003601f168201915b5050505050905060006122ba6132e5565b90506000815114156122d0578192505050612313565b6000825111156123055780826040516020016122ed929190614b12565b60405160208183030381529060405292505050612313565b61230e846132fc565b925050505b919050565b6060600c60008373ffffffffffffffffffffffffffffffffffffffff1673ffffffffffffffffffffffffffffffffffffffff168152602001908152602001600020805480602002602001604051908101604052809291908181526020016000905b8282101561241557838290600052602060002090600302016040518060600160405290816000820160009054906101000a900473ffffffffffffffffffffffffffffffffffffffff1673ffffffffffffffffffffffffffffffffffffffff1673ffffffffffffffffffffffffffffffffffffffff1681526020016001820154815260200160028201548152505081526020019060010190612379565b505050509050919050565b3373ffffffffffffffffffffffffffffffffffffffff16600e600084815260200190815260200160002060020160009054906101000a900473ffffffffffffffffffffffffffffffffffffffff1673ffffffffffffffffffffffffffffffffffffffff16146124c4576040517f08c379a00000000000000000000000000000000000000000000000000000000081526004016124bb90614ba8565b60405180910390fd5b600a543414612508576040517f08c379a00000000000000000000000000000000000000000000000000000000081526004016124ff90614c3a565b60405180910390fd5b6000600e600084815260200190815260200160002060060160006101000a81548160ff02191690831515021790555080600e60008481526020019081526020016000206003018190555033600e600084815260200190815260200160002060010160006101000a81548173ffffffffffffffffffffffffffffffffffffffff021916908373ffffffffffffffffffffffffffffffffffffffff16021790555030600e600084815260200190815260200160002060020160006101000a81548173ffffffffffffffffffffffffffffffffffffffff021916908373ffffffffffffffffffffffffffffffffffffffff1602179055506126066008613364565b6126113330846128c2565b5050565b6000600560008473ffffffffffffffffffffffffffffffffffffffff1673ffffffffffffffffffffffffffffffffffffffff16815260200190815260200160002060008373ffffffffffffffffffffffffffffffffffffffff1673ffffffffffffffffffffffffffffffffffffffff16815260200190815260200160002060009054906101000a900460ff16905092915050565b60007f01ffc9a7000000000000000000000000000000000000000000000000000000007bffffffffffffffffffffffffffffffffffffffffffffffffffffffff1916827bffffffffffffffffffffffffffffffffffffffffffffffffffffffff1916149050919050565b61271c816133c0565b61275b576040517f08c379a000000000000000000000000000000000000000000000000000000000815260040161275290614812565b60405180910390fd5b50565b600033905090565b816004600083815260200190815260200160002060006101000a81548173ffffffffffffffffffffffffffffffffffffffff021916908373ffffffffffffffffffffffffffffffffffffffff160217905550808273ffffffffffffffffffffffffffffffffffffffff166127d98361148b565b73ffffffffffffffffffffffffffffffffffffffff167f8c5be1e5ebec7d5bd14f71427d1e84f3dd0314c0f7b2291e5b200ac8c7c3b92560405160405180910390a45050565b600081600001549050919050565b6000806128398361148b565b90508073ffffffffffffffffffffffffffffffffffffffff168473ffffffffffffffffffffffffffffffffffffffff16148061287b575061287a8185612615565b5b806128b957508373ffffffffffffffffffffffffffffffffffffffff166128a184610794565b73ffffffffffffffffffffffffffffffffffffffff16145b91505092915050565b8273ffffffffffffffffffffffffffffffffffffffff166128e28261148b565b73ffffffffffffffffffffffffffffffffffffffff1614612938576040517f08c379a000000000000000000000000000000000000000000000000000000000815260040161292f90614ccc565b60405180910390fd5b600073ffffffffffffffffffffffffffffffffffffffff168273ffffffffffffffffffffffffffffffffffffffff1614156129a8576040517f08c379a000000000000000000000000000000000000000000000000000000000815260040161299f90614d5e565b60405180910390fd5b6129b58383836001613401565b8273ffffffffffffffffffffffffffffffffffffffff166129d58261148b565b73ffffffffffffffffffffffffffffffffffffffff1614612a2b576040517f08c379a0000000000000000000000000000000000000000000000000000000008152600401612a2290614ccc565b60405180910390fd5b6004600082815260200190815260200160002060006101000a81549073ffffffffffffffffffffffffffffffffffffffff02191690556001600360008573ffffffffffffffffffffffffffffffffffffffff1673ffffffffffffffffffffffffffffffffffffffff168152602001908152602001600020600082825403925050819055506001600360008473ffffffffffffffffffffffffffffffffffffffff1673ffffffffffffffffffffffffffffffffffffffff16815260200190815260200160002060008282540192505081905550816002600083815260200190815260200160002060006101000a81548173ffffffffffffffffffffffffffffffffffffffff021916908373ffffffffffffffffffffffffffffffffffffffff160217905550808273ffffffffffffffffffffffffffffffffffffffff168473ffffffffffffffffffffffffffffffffffffffff167fddf252ad1be2c89b69c2b068fc378daa952ba7f163c4a11628f55a4df523b3ef60405160405180910390a4612bb78383836001613527565b505050565b60006002600083815260200190815260200160002060009054906101000a900473ffffffffffffffffffffffffffffffffffffffff169050919050565b8173ffffffffffffffffffffffffffffffffffffffff168373ffffffffffffffffffffffffffffffffffffffff161415612c68576040517f08c379a0000000000000000000000000000000000000000000000000000000008152600401612c5f90614dca565b60405180910390fd5b80600560008573ffffffffffffffffffffffffffffffffffffffff1673ffffffffffffffffffffffffffffffffffffffff16815260200190815260200160002060008473ffffffffffffffffffffffffffffffffffffffff1673ffffffffffffffffffffffffffffffffffffffff16815260200190815260200160002060006101000a81548160ff0219169083151502179055508173ffffffffffffffffffffffffffffffffffffffff168373ffffffffffffffffffffffffffffffffffffffff167f17307eab39ab6107e8899845ad3d59bd9653f200f220920489ca2b5937696c3183604051612d599190613aea565b60405180910390a3505050565b612d718484846128c2565b612d7d8484848461352d565b612dbc576040517f08c379a0000000000000000000000000000000000000000000000000000000008152600401612db390614e5c565b60405180910390fd5b50505050565b6001816000016000828254019250508190555050565b600073ffffffffffffffffffffffffffffffffffffffff168273ffffffffffffffffffffffffffffffffffffffff161415612e48576040517f08c379a0000000000000000000000000000000000000000000000000000000008152600401612e3f90614ec8565b60405180910390fd5b612e51816133c0565b15612e91576040517f08c379a0000000000000000000000000000000000000000000000000000000008152600401612e8890614f34565b60405180910390fd5b612e9f600083836001613401565b612ea8816133c0565b15612ee8576040517f08c379a0000000000000000000000000000000000000000000000000000000008152600401612edf90614f34565b60405180910390fd5b6001600360008473ffffffffffffffffffffffffffffffffffffffff1673ffffffffffffffffffffffffffffffffffffffff16815260200190815260200160002060008282540192505081905550816002600083815260200190815260200160002060006101000a81548173ffffffffffffffffffffffffffffffffffffffff021916908373ffffffffffffffffffffffffffffffffffffffff160217905550808273ffffffffffffffffffffffffffffffffffffffff16600073ffffffffffffffffffffffffffffffffffffffff167fddf252ad1be2c89b69c2b068fc378daa952ba7f163c4a11628f55a4df523b3ef60405160405180910390a4612ff2600083836001613527565b5050565b612fff826133c0565b61303e576040517f08c379a000000000000000000000000000000000000000000000000000000000815260040161303590614fc6565b60405180910390fd5b80600660008481526020019081526020016000209080519060200190613065929190613993565b505050565b600082116130ad576040517f08c379a00000000000000000000000000000000000000000000000000000000081526004016130a490615032565b60405180910390fd5b600a5434146130f1576040517f08c379a00000000000000000000000000000000000000000000000000000000081526004016130e890614c3a565b60405180910390fd5b6040518060e001604052808481526020013373ffffffffffffffffffffffffffffffffffffffff1681526020013073ffffffffffffffffffffffffffffffffffffffff1681526020018381526020013373ffffffffffffffffffffffffffffffffffffffff16815260200182815260200160001515815250600e60008581526020019081526020016000206000820151816000015560208201518160010160006101000a81548173ffffffffffffffffffffffffffffffffffffffff021916908373ffffffffffffffffffffffffffffffffffffffff16021790555060408201518160020160006101000a81548173ffffffffffffffffffffffffffffffffffffffff021916908373ffffffffffffffffffffffffffffffffffffffff1602179055506060820151816003015560808201518160040160006101000a81548173ffffffffffffffffffffffffffffffffffffffff021916908373ffffffffffffffffffffffffffffffffffffffff16021790555060a0820151816005015560c08201518160060160006101000a81548160ff02191690831515021790555090505061329d3330856128c2565b827f8b5c56fa3ce5fe28f95f3958b2d58be4d9dcb5c55e5d918ae5fc31a9215f5645333085338660006040516132d896959493929190615052565b60405180910390a2505050565b606060405180602001604052806000815250905090565b606061330782612713565b60006133116132e5565b90506000815111613331576040518060200160405280600081525061335c565b8061333b846136c4565b60405160200161334c929190614b12565b6040516020818303038152906040525b915050919050565b600081600001549050600081116133b0576040517f08c379a00000000000000000000000000000000000000000000000000000000081526004016133a7906150ff565b60405180910390fd5b6001810382600001819055505050565b60008073ffffffffffffffffffffffffffffffffffffffff166133e283612bbc565b73ffffffffffffffffffffffffffffffffffffffff1614159050919050565b600181111561352157600073ffffffffffffffffffffffffffffffffffffffff168473ffffffffffffffffffffffffffffffffffffffff16146134955780600360008673ffffffffffffffffffffffffffffffffffffffff1673ffffffffffffffffffffffffffffffffffffffff168152602001908152602001600020600082825461348d91906149e8565b925050819055505b600073ffffffffffffffffffffffffffffffffffffffff168373ffffffffffffffffffffffffffffffffffffffff16146135205780600360008573ffffffffffffffffffffffffffffffffffffffff1673ffffffffffffffffffffffffffffffffffffffff16815260200190815260200160002060008282546135189190614666565b925050819055505b5b50505050565b50505050565b600061354e8473ffffffffffffffffffffffffffffffffffffffff1661379c565b156136b7578373ffffffffffffffffffffffffffffffffffffffff1663150b7a0261357761275e565b8786866040518563ffffffff1660e01b81526004016135999493929190615174565b602060405180830381600087803b1580156135b357600080fd5b505af19250505080156135e457506040513d601f19601f820116820180604052508101906135e191906151d5565b60015b613667573d8060008114613614576040519150601f19603f3d011682016040523d82523d6000602084013e613619565b606091505b5060008151141561365f576040517f08c379a000000000000000000000000000000000000000000000000000000000815260040161365690614e5c565b60405180910390fd5b805181602001fd5b63150b7a0260e01b7bffffffffffffffffffffffffffffffffffffffffffffffffffffffff1916817bffffffffffffffffffffffffffffffffffffffffffffffffffffffff1916149150506136bc565b600190505b949350505050565b6060600060016136d3846137bf565b01905060008167ffffffffffffffff8111156136f2576136f1614174565b5b6040519080825280601f01601f1916602001820160405280156137245781602001600182028036833780820191505090505b509050600082602001820190505b600115613791578080600190039150507f3031323334353637383961626364656600000000000000000000000000000000600a86061a8153600a858161377b5761377a614a1c565b5b049450600085141561378c57613791565b613732565b819350505050919050565b6000808273ffffffffffffffffffffffffffffffffffffffff163b119050919050565b600080600090507a184f03e93ff9f4daa797ed6e38ed64bf6a1f010000000000000000831061381d577a184f03e93ff9f4daa797ed6e38ed64bf6a1f010000000000000000838161381357613812614a1c565b5b0492506040810190505b6d04ee2d6d415b85acef8100000000831061385a576d04ee2d6d415b85acef810000000083816138505761384f614a1c565b5b0492506020810190505b662386f26fc10000831061388957662386f26fc10000838161387f5761387e614a1c565b5b0492506010810190505b6305f5e10083106138b2576305f5e10083816138a8576138a7614a1c565b5b0492506008810190505b61271083106138d75761271083816138cd576138cc614a1c565b5b0492506004810190505b606483106138fa57606483816138f0576138ef614a1c565b5b0492506002810190505b600a8310613909576001810190505b80915050919050565b6040518060e0016040528060008152602001600073ffffffffffffffffffffffffffffffffffffffff168152602001600073ffffffffffffffffffffffffffffffffffffffff16815260200160008152602001600073ffffffffffffffffffffffffffffffffffffffff168152602001600081526020016000151581525090565b82805461399f906144e1565b90600052602060002090601f0160209004810192826139c15760008555613a08565b82601f106139da57805160ff1916838001178555613a08565b82800160010185558215613a08579182015b82811115613a075782518255916020019190600101906139ec565b5b509050613a159190613a19565b5090565b5b80821115613a32576000816000905550600101613a1a565b5090565b6000604051905090565b600080fd5b600080fd5b60007fffffffff0000000000000000000000000000000000000000000000000000000082169050919050565b613a7f81613a4a565b8114613a8a57600080fd5b50565b600081359050613a9c81613a76565b92915050565b600060208284031215613ab857613ab7613a40565b5b6000613ac684828501613a8d565b91505092915050565b60008115159050919050565b613ae481613acf565b82525050565b6000602082019050613aff6000830184613adb565b92915050565b600081519050919050565b600082825260208201905092915050565b60005b83811015613b3f578082015181840152602081019050613b24565b83811115613b4e576000848401525b50505050565b6000601f19601f8301169050919050565b6000613b7082613b05565b613b7a8185613b10565b9350613b8a818560208601613b21565b613b9381613b54565b840191505092915050565b60006020820190508181036000830152613bb88184613b65565b905092915050565b6000819050919050565b613bd381613bc0565b8114613bde57600080fd5b50565b600081359050613bf081613bca565b92915050565b600060208284031215613c0c57613c0b613a40565b5b6000613c1a84828501613be1565b91505092915050565b600073ffffffffffffffffffffffffffffffffffffffff82169050919050565b6000613c4e82613c23565b9050919050565b613c5e81613c43565b82525050565b6000602082019050613c796000830184613c55565b92915050565b613c8881613c43565b8114613c9357600080fd5b50565b600081359050613ca581613c7f565b92915050565b60008060408385031215613cc257613cc1613a40565b5b6000613cd085828601613c96565b9250506020613ce185828601613be1565b9150509250929050565b600081519050919050565b600082825260208201905092915050565b6000819050602082019050919050565b613d2081613bc0565b82525050565b6000613d3182613c23565b9050919050565b613d4181613d26565b82525050565b613d5081613acf565b82525050565b60e082016000820151613d6c6000850182613d17565b506020820151613d7f6020850182613d38565b506040820151613d926040850182613d38565b506060820151613da56060850182613d17565b506080820151613db86080850182613d38565b5060a0820151613dcb60a0850182613d17565b5060c0820151613dde60c0850182613d47565b50505050565b6000613df08383613d56565b60e08301905092915050565b6000602082019050919050565b6000613e1482613ceb565b613e1e8185613cf6565b9350613e2983613d07565b8060005b83811015613e5a578151613e418882613de4565b9750613e4c83613dfc565b925050600181019050613e2d565b5085935050505092915050565b60006020820190508181036000830152613e818184613e09565b905092915050565b613e9281613bc0565b82525050565b6000602082019050613ead6000830184613e89565b92915050565b600081519050919050565b600082825260208201905092915050565b6000819050602082019050919050565b613ee881613c43565b82525050565b606082016000820151613f046000850182613edf565b506020820151613f176020850182613d17565b506040820151613f2a6040850182613d17565b50505050565b6000613f3c8383613eee565b60608301905092915050565b6000602082019050919050565b6000613f6082613eb3565b613f6a8185613ebe565b9350613f7583613ecf565b8060005b83811015613fa6578151613f8d8882613f30565b9750613f9883613f48565b925050600181019050613f79565b5085935050505092915050565b60006020820190508181036000830152613fcd8184613f55565b905092915050565b600080600060608486031215613fee57613fed613a40565b5b6000613ffc86828701613c96565b935050602061400d86828701613c96565b925050604061401e86828701613be1565b9150509250925092565b60e08201600082015161403e6000850182613d17565b5060208201516140516020850182613d38565b5060408201516140646040850182613d38565b5060608201516140776060850182613d17565b50608082015161408a6080850182613d38565b5060a082015161409d60a0850182613d17565b5060c08201516140b060c0850182613d47565b50505050565b600060e0820190506140cb6000830184614028565b92915050565b6000602082840312156140e7576140e6613a40565b5b60006140f584828501613c96565b91505092915050565b61410781613acf565b811461411257600080fd5b50565b600081359050614124816140fe565b92915050565b6000806040838503121561414157614140613a40565b5b600061414f85828601613c96565b925050602061416085828601614115565b9150509250929050565b600080fd5b600080fd5b7f4e487b7100000000000000000000000000000000000000000000000000000000600052604160045260246000fd5b6141ac82613b54565b810181811067ffffffffffffffff821117156141cb576141ca614174565b5b80604052505050565b60006141de613a36565b90506141ea82826141a3565b919050565b600067ffffffffffffffff82111561420a57614209614174565b5b61421382613b54565b9050602081019050919050565b82818337600083830152505050565b600061424261423d846141ef565b6141d4565b90508281526020810184848401111561425e5761425d61416f565b5b614269848285614220565b509392505050565b600082601f8301126142865761428561416a565b5b813561429684826020860161422f565b91505092915050565b600080600080608085870312156142b9576142b8613a40565b5b60006142c787828801613c96565b94505060206142d887828801613c96565b93505060406142e987828801613be1565b925050606085013567ffffffffffffffff81111561430a57614309613a45565b5b61431687828801614271565b91505092959194509250565b600067ffffffffffffffff82111561433d5761433c614174565b5b61434682613b54565b9050602081019050919050565b600061436661436184614322565b6141d4565b9050828152602081018484840111156143825761438161416f565b5b61438d848285614220565b509392505050565b600082601f8301126143aa576143a961416a565b5b81356143ba848260208601614353565b91505092915050565b6000806000606084860312156143dc576143db613a40565b5b600084013567ffffffffffffffff8111156143fa576143f9613a45565b5b61440686828701614395565b935050602061441786828701613be1565b925050604061442886828701613be1565b9150509250925092565b6000806040838503121561444957614448613a40565b5b600061445785828601613be1565b925050602061446885828601613be1565b9150509250929050565b6000806040838503121561448957614488613a40565b5b600061449785828601613c96565b92505060206144a885828601613c96565b9150509250929050565b7f4e487b7100000000000000000000000000000000000000000000000000000000600052602260045260246000fd5b600060028204905060018216806144f957607f821691505b6020821081141561450d5761450c6144b2565b5b50919050565b7f4552433732313a20617070726f76616c20746f2063757272656e74206f776e6560008201527f7200000000000000000000000000000000000000000000000000000000000000602082015250565b600061456f602183613b10565b915061457a82614513565b604082019050919050565b6000602082019050818103600083015261459e81614562565b9050919050565b7f4552433732313a20617070726f76652063616c6c6572206973206e6f7420746f60008201527f6b656e206f776e6572206f7220617070726f76656420666f7220616c6c000000602082015250565b6000614601603d83613b10565b915061460c826145a5565b604082019050919050565b60006020820190508181036000830152614630816145f4565b9050919050565b7f4e487b7100000000000000000000000000000000000000000000000000000000600052601160045260246000fd5b600061467182613bc0565b915061467c83613bc0565b9250827fffffffffffffffffffffffffffffffffffffffffffffffffffffffffffffffff038211156146b1576146b0614637565b5b828201905092915050565b7f4e487b7100000000000000000000000000000000000000000000000000000000600052603260045260246000fd5b60006146f682613bc0565b91507fffffffffffffffffffffffffffffffffffffffffffffffffffffffffffffffff82141561472957614728614637565b5b600182019050919050565b7f4552433732313a2063616c6c6572206973206e6f7420746f6b656e206f776e6560008201527f72206f7220617070726f76656400000000000000000000000000000000000000602082015250565b6000614790602d83613b10565b915061479b82614734565b604082019050919050565b600060208201905081810360008301526147bf81614783565b9050919050565b7f4552433732313a20696e76616c696420746f6b656e2049440000000000000000600082015250565b60006147fc601883613b10565b9150614807826147c6565b602082019050919050565b6000602082019050818103600083015261482b816147ef565b9050919050565b7f4552433732313a2061646472657373207a65726f206973206e6f74206120766160008201527f6c6964206f776e65720000000000000000000000000000000000000000000000602082015250565b600061488e602983613b10565b915061489982614832565b604082019050919050565b600060208201905081810360008301526148bd81614881565b9050919050565b7f4f6e6c79206d61726b6574706c616365206f776e65722063616e20757064617460008201527f65206c697374696e672070726963652e00000000000000000000000000000000602082015250565b6000614920603083613b10565b915061492b826148c4565b604082019050919050565b6000602082019050818103600083015261494f81614913565b9050919050565b7f506c65617365207375626d6974207468652061736b696e67207072696365206960008201527f6e206f7264657220746f20636f6d706c65746520746865207075726368617365602082015250565b60006149b2604083613b10565b91506149bd82614956565b604082019050919050565b600060208201905081810360008301526149e1816149a5565b9050919050565b60006149f382613bc0565b91506149fe83613bc0565b925082821015614a1157614a10614637565b5b828203905092915050565b7f4e487b7100000000000000000000000000000000000000000000000000000000600052601260045260246000fd5b6000614a5682613bc0565b9150614a6183613bc0565b925082614a7157614a70614a1c565b5b828204905092915050565b6000614a8782613bc0565b9150614a9283613bc0565b9250817fffffffffffffffffffffffffffffffffffffffffffffffffffffffffffffffff0483118215151615614acb57614aca614637565b5b828202905092915050565b600081905092915050565b6000614aec82613b05565b614af68185614ad6565b9350614b06818560208601613b21565b80840191505092915050565b6000614b1e8285614ae1565b9150614b2a8284614ae1565b91508190509392505050565b7f4f6e6c79206974656d206f776e65722063616e20706572666f726d207468697360008201527f206f7065726174696f6e00000000000000000000000000000000000000000000602082015250565b6000614b92602a83613b10565b9150614b9d82614b36565b604082019050919050565b60006020820190508181036000830152614bc181614b85565b9050919050565b7f5072696365206d75737420626520657175616c20746f206c697374696e67207060008201527f7269636500000000000000000000000000000000000000000000000000000000602082015250565b6000614c24602483613b10565b9150614c2f82614bc8565b604082019050919050565b60006020820190508181036000830152614c5381614c17565b9050919050565b7f4552433732313a207472616e736665722066726f6d20696e636f72726563742060008201527f6f776e6572000000000000000000000000000000000000000000000000000000602082015250565b6000614cb6602583613b10565b9150614cc182614c5a565b604082019050919050565b60006020820190508181036000830152614ce581614ca9565b9050919050565b7f4552433732313a207472616e7366657220746f20746865207a65726f2061646460008201527f7265737300000000000000000000000000000000000000000000000000000000602082015250565b6000614d48602483613b10565b9150614d5382614cec565b604082019050919050565b60006020820190508181036000830152614d7781614d3b565b9050919050565b7f4552433732313a20617070726f766520746f2063616c6c657200000000000000600082015250565b6000614db4601983613b10565b9150614dbf82614d7e565b602082019050919050565b60006020820190508181036000830152614de381614da7565b9050919050565b7f4552433732313a207472616e7366657220746f206e6f6e20455243373231526560008201527f63656976657220696d706c656d656e7465720000000000000000000000000000602082015250565b6000614e46603283613b10565b9150614e5182614dea565b604082019050919050565b60006020820190508181036000830152614e7581614e39565b9050919050565b7f4552433732313a206d696e7420746f20746865207a65726f2061646472657373600082015250565b6000614eb2602083613b10565b9150614ebd82614e7c565b602082019050919050565b60006020820190508181036000830152614ee181614ea5565b9050919050565b7f4552433732313a20746f6b656e20616c7265616479206d696e74656400000000600082015250565b6000614f1e601c83613b10565b9150614f2982614ee8565b602082019050919050565b60006020820190508181036000830152614f4d81614f11565b9050919050565b7f45524337323155524953746f726167653a2055524920736574206f66206e6f6e60008201527f6578697374656e7420746f6b656e000000000000000000000000000000000000602082015250565b6000614fb0602e83613b10565b9150614fbb82614f54565b604082019050919050565b60006020820190508181036000830152614fdf81614fa3565b9050919050565b7f5072696365206d757374206265206174206c6561737420312077656900000000600082015250565b600061501c601c83613b10565b915061502782614fe6565b602082019050919050565b6000602082019050818103600083015261504b8161500f565b9050919050565b600060c0820190506150676000830189613c55565b6150746020830188613c55565b6150816040830187613e89565b61508e6060830186613c55565b61509b6080830185613e89565b6150a860a0830184613adb565b979650505050505050565b7f436f756e7465723a2064656372656d656e74206f766572666c6f770000000000600082015250565b60006150e9601b83613b10565b91506150f4826150b3565b602082019050919050565b60006020820190508181036000830152615118816150dc565b9050919050565b600081519050919050565b600082825260208201905092915050565b60006151468261511f565b615150818561512a565b9350615160818560208601613b21565b61516981613b54565b840191505092915050565b60006080820190506151896000830187613c55565b6151966020830186613c55565b6151a36040830185613e89565b81810360608301526151b5818461513b565b905095945050505050565b6000815190506151cf81613a76565b92915050565b6000602082840312156151eb576151ea613a40565b5b60006151f9848285016151c0565b9150509291505056fea2646970667358221220bb708597b01405af116f2843b0968308566dd3e988b0c0f01c17e6a527e9121b64736f6c63430008090033",
  "linkReferences": {},
  "deployedLinkReferences": {}
}